:100000000C9447000C945C000C945C000C945C0015
:100010000C945C000C945C000C945C000C945C00F0
:100020000C945C000C945C000C945C000C945C00E0
:100030000C945C000C945C000C945C000C945C00D0
:100040000C945C000C945C000C945C000C945C00C0
:100050000C945C000C945C000C945C000C945C00B0
:100060000C945C000C945C0021012A0137014401CE
:100070005101550159015D0160016001600160019C
:100080006001600160016001600160011A011124DA
:100090001FBECFEFD8E0DEBFCDBF11E0A0E0B1E0E2
:1000A000E8EDF2E002C005900D92A833B107D9F750
:1000B0000E940B010C946A010C940000ACE7B0E0C4
:1000C0001C92EAE7F0E0108210927B008C938C91F6
:1000D00080648C9380818368808380818064808346
:1000E000808186FDFDCF209178008091790090E09D
:1000F000982F8827820F911D0895E0ECF0E0908101
:1001000095FFFDCF8093C6000895CF93DF93EC0158
:100110008881882331F021960E947D008991811188
:10012000FBCFDF91CF9108958093C4009093C500D9
:100130008EE08093C200E1ECF0E0808188618083F2
:100140002FEB87E299E0215080409040E1F700C01A
:10015000000080E091E00E9485008AE00E947D001E
:1001600081E191E00E9485008AE00E947D0008956F
:10017000E0ECF0E080818823ECF78091C6000895E0
:1001800094B1976094B981FB332730F925B195B1CB
:100190009695917081702170821721F025B181E0D0
:1001A000822785B9391721F095B182E0892785B971
:1001B0000895229A95B184E0982795B92FE936E8F9
:1001C00091E0215030409040E1F700C0000095B12F
:1001D000892785B92FE936E881E0215030408040F9
:1001E000E1F700C00000089580E090E00E949400D4
:1001F0000E94D90095B184E0892785B90895CF93ED
:100200000E945E00C82F892F0E947D008C2F0E94C3
:100210007D00CF9108950E94F4000E94B80090E004
:10022000FC01F097E331F10508F04AC0EC5CFF4FA8
:100230000C9464018BE291E00E9485000E94D90039
:100240003FC080E00E94C0006AE271E080E00E944E
:10025000FF0036C081E00E94C000CFEFDFE06AE21D
:1002600071E080E00E94FF002197C9F729C082E079
:100270000E94C000CFEFDFE06AE271E080E00E9400
:10028000FF002197C9F71CC083E00E94C000CFEF98
:10029000DFE06AE271E080E00E94FF002197C9F789
:1002A0000FC084E00E94C0000BC085E00E94C00027
:1002B00007C086E00E94C00003C087E00E94C00023
:1002C0008AE00E947D00A9CFEE0FFF1F0590F491F8
:0802D000E02D0994F894FFCF22
:1002D8005541525420496E697469616C697A656444
:1002E80000436F7079726967687420536168696C3C
:1002F800204B616C65203230323000426C696E6B85
:08030800696E67204C454400BA
:00000001FF
