S01F00004D61696E436F64654D656454656368456D6265646465642E7372656361
S11300000C9447000C945C000C945C000C945C0011
S11300100C945C000C945C000C945C000C945C00EC
S11300200C945C000C945C000C945C000C945C00DC
S11300300C945C000C945C000C945C000C945C00CC
S11300400C945C000C945C000C945C000C945C00BC
S11300500C945C000C945C000C945C000C945C00AC
S11300600C945C000C945C00880191019A01A3013A
S1130070A701AB01AF01B301B601B601B601B601E8
S1130080B601B601B601B601B601B601810111246B
S11300901FBECFEFD8E0DEBFCDBF11E0A0E0B1E0DE
S11300A0EEEEF3E002C005900D92A635B107D9F744
S11300B00E9473010C94F5010C940000ACE7B0E0CD
S11300C01C92EAE7F0E0108210927B008C938C91F2
S11300D080648C938081876880838081806480833E
S11300E0808186FDFDCF209178008091790090E099
S11300F0982F8827820F911D0895E0ECF0E09081FD
S113010095FFFDCF8093C6000895CF93DF93EC0154
S11301108881882331F021960E947D008991811184
S1130120FBCFDF91CF9108958093C4009093C500D5
S11301308EE08093C200E1ECF0E0808188618083EE
S11301402FE382E49FE0215080409040E1F700C01B
S1130150000080E091E00E9485008AE00E947D001A
S113016081E191E00E9485008AE00E947D0008956B
S1130170E0ECF0E080818823ECF78091C6000895DC
S1130180CF92DF92EF92FF920F931F93CF93DF935F
S113019094B1976094B9EE24E394982F947082FFFD
S11301A0E12CFF24F394282F2270C22E81FFF12C1E
S11301B001E0282F2170D22E80FF00E015B11170CC
S11301C0D5B1D695D170C5B1C2FBCC27C0F999235E
S11301D029F08AE491E00E94850004C089E291E05C
S11301E00E948500CC2029F08AE491E00E948500D9
S11301F004C089E291E00E948500DD2029F08AE4B0
S113020091E00E94850004C089E291E00E9485008B
S11302108AE00E947D00E11621F095B181E08927F2
S113022085B9FD1621F095B182E0892785B90C17AF
S113023021F095B184E0892785B9DF91CF911F9191
S11302400F91FF90EF90DF90CF900895239A95B18E
S113025088E0982795B92FE936E891E0215030409D
S11302609040E1F700C0000095B1892785B92FE9D6
S113027036E881E0215030408040E1F700C00000C2
S113028008958CE090E00E9494000E94260195B1AC
S113029088E0892785B908950F931F93CF93DF933F
S11302A0CDB7DEB72B970FB6F894DEBF0FBECDBF28
S11302B08B010E945E0042E0BE016F5F7F4F0E948F
S11302C0C001CE0101960E948500C8010E948500EC
S11302D02B960FB6F894DEBF0FBECDBFDF91CF9142
S11302E01F910F9108950E9441010E94B80090E06F
S11302F0FC01F097E331F105C8F5EC5CFF4F0C9479
S1130300BA018BE291E00E9485000E9426012EC072
S113031080E00E94C00068E371E080E00E944C012C
S113032025C081E00E94C00062E471E080E00E9488
S11303304C011CC082E00E94C0006CE471E080E0CB
S11303400E944C0113C083E00E94C0000FC084E0EF
S11303500E94C0000BC085E00E94C00007C086E078
S11303600E94C00003C087E00E94C0008AE00E948F
S11303707D00BBCFEE0FFF1F0590F491E02D099493
S1130380BB274A3031F4992322F4BDE2909581953C
S11303909F4F0C94CC01BB27FB015527AA27880F3C
S11303A0991FAA1FA41710F0A41B83955051B9F7E5
S11303B0A05DAA3308F0A95DA193009779F7B11164
S11303C0B1931192CB010C94E501DC01FC01672F80
S11303D071917723E1F7329704C07C916D93708318
S11103E06291AE17BF07C8F30895F894FFCFDB
S11303EE5541525420496E697469616C697A656429
S11303FE00436F7079726967687420536168696C21
S113040E204B616C65203230323000426C696E6B69
S113041E696E67204C45440053656C65637465646E
S113042E300053656C6563746564310053656C65A7
S109043E637465643200E2
S9030000FC
