:100000000C9447000C945C000C945C000C945C0015
:100010000C945C000C945C000C945C000C945C00F0
:100020000C945C000C945C000C945C000C945C00E0
:100030000C945C000C945C000C945C000C945C00D0
:100040000C945C000C945C000C945C000C945C00C0
:100050000C945C000C945C000C945C000C945C00B0
:100060000C945C000C945C00480151015A0163013E
:100070006C017001740178017B017B017B017B01C4
:100080007B017B017B017B017B017B014101112411
:100090001FBECFEFD8E0DEBFCDBF11E0A0E0B1E0E2
:1000A000E8E7F3E002C005900D92A833B107D9F755
:1000B0000E9433010C94BA010C940000ACE7B0E04C
:1000C0001C92EAE7F0E0108210927B008C938C91F6
:1000D00080648C9380818768808380818064808342
:1000E000808186FDFDCF209178008091790090E09D
:1000F000982F8827820F911D0895E0ECF0E0908101
:1001000095FFFDCF8093C6000895CF93DF93EC0158
:100110008881882331F021960E947D008991811188
:10012000FBCFDF91CF9108958093C4009093C500D9
:100130008EE08093C200E1ECF0E0808188618083F2
:100140002FEB87E299E0215080409040E1F700C01A
:10015000000080E091E00E9485008AE00E947D001E
:1001600081E191E00E9485008AE00E947D0008956F
:10017000E0ECF0E080818823ECF78091C6000895E0
:1001800094B1976094B981FB552750F982FB4427BD
:1001900040F935B125B12695217095B192FB99278B
:1001A00090F981703170831721F035B181E0832798
:1001B00085B9521721F025B182E0822785B9491708
:1001C00021F095B184E0892785B90895239A95B1E6
:1001D00088E0982795B92FE936E891E02150304022
:1001E0009040E1F700C0000095B1892785B92FE95B
:1001F00036E881E0215030408040E1F700C0000047
:10020000089580E090E00E9494000E94E60095B17D
:1002100088E0892785B908950F931F93CF93DF93C3
:10022000CDB7DEB72B970FB6F894DEBF0FBECDBFAC
:100230008B010E945E0042E0BE016F5F7F4F0E9413
:100240008501CE0101960E948500C8010E948500AB
:100250002B960FB6F894DEBF0FBECDBFDF91CF91C6
:100260001F910F9108950E9401010E94B80090E033
:10027000FC01F097E331F105F0F5EC5CFF4F0C94D5
:100280007F018BE291E00E9485000E94E60033C06E
:1002900080E00E94C0006AE271E080E00E940C01F0
:1002A0002AC081E00E94C0006AE271E080E00E9402
:1002B0000C0121C082E00E94C0006AE271E080E08F
:1002C0000E940C0118C083E00E94C0006AE271E045
:1002D00080E00E940C010FC084E00E94C0000BC0AF
:1002E00085E00E94C00007C086E00E94C00003C0F5
:1002F00087E00E94C0008AE00E947D00B6CFEE0F2A
:10030000FF1F0590F491E02D0994BB274A3031F48A
:10031000992322F4BDE2909581959F4F0C94910111
:10032000BB27FB015527AA27880F991FAA1FA417CF
:1003300010F0A41B83955051B9F7A05DAA3308F0C3
:10034000A95DA193009779F7B111B1931192CB01F7
:100350000C94AA01DC01FC01672F71917723E1F76E
:10036000329704C07C916D9370836291AE17BF0782
:08037000C8F30895F894FFCFD3
:100378005541525420496E697469616C697A6564A3
:1003880000436F7079726967687420536168696C9B
:10039800204B616C65203230323000426C696E6BE4
:0803A800696E67204C4544001A
:00000001FF
