S01F00004D61696E436F64654D656454656368456D6265646465642E7372656361
S11300000C9434000C9449000C9449000C9449005D
S11300100C9449000C9449000C9449000C94490038
S11300200C9449000C9449000C9449000C94490028
S11300300C9449000C9449000C9449000C94490018
S11300400C9449000C9449000C9449000C94490008
S11300500C9449000C9449000C9449000C944900F8
S11300600C9449000C94490011241FBECFEFD8E032
S1130070DEBFCDBF11E0A0E0B1E0E2E2F2E002C0F9
S113008005900D92A630B107D9F70E94B0000C94E8
S11300900F010C940000ACE7B0E01C92EAE7F0E03A
S11300A0108210927B008C938C9180648C9380815D
S11300B083688083808180648083808186FDFDCF16
S11300C0209178008091790090E0982F8827820F02
S11300D0911D0895E0ECF0E0908195FFFDCF8093B1
S11300E0C6000895CF93DF93EC018881882331F013
S11300F021960E946A0089918111FBCFDF91CF91F3
S113010008958093C4009093C5008EE08093C2004C
S1130110E1ECF0E0808188618083089595B181E00D
S1130120982795B92FE936E891E021503040904066
S1130130E1F700C0000095B1892785B92FE936E8B9
S113014081E0215030408040E1F700C00000089574
S113015089E190E00E948100209A0E948E00089517
S1130160CF93DF93CDB7DEB761970FB6F894DEBFB8
S11301700FBECDBF0E94A80085E00E944B0026E080
S1130180E0E0F1E0DE011C9601900D922A95E1F782
S113019042E0BE016F5F7F4F0E94DA00CE010196FC
S11301A00E9472008AE00E946A00CE010C960E94AE
S11301B07200E2CFBB274A3031F4992322F4BDE226
S11301C0909581959F4F0C94E600BB27FB01552722
S11301D0AA27880F991FAA1FA41710F0A41B8395A0
S11301E05051B9F7A05DAA3308F0A95DA193009717
S11301F079F7B111B1931192CB010C94FF00DC019A
S1130200FC01672F71917723E1F7329704C07C9149
S11302106D9370836291AE17BF07C8F30895F89485
S1050220FFCF0A
S109022254656D704300F9
S9030000FC
