:100000000C9459000C946E000C946E000C946E00CD
:100010000C946E000C946E000C946E000C946E00A8
:100020000C946E000C946E000C946E000C946E0098
:100030000C946E000C946E000C946E000C946E0088
:100040000C946E000C946E000C946E000C946E0078
:100050000C946E000C946E000C946E000C946E0068
:100060000C946E000C946E004601530160016D010A
:1000700076017A017E018201850185018501850174
:10008000850185018501850185018501390185018C
:100090008501850185018501850185018501850130
:1000A0008501850185018501850185018501850120
:1000B000400111241FBECFEFD8E0DEBFCDBF11E05D
:1000C000A0E0B1E0E2E2F3E002C005900D92A833B7
:1000D000B107D9F70E942A010C948F010C940000FB
:1000E000ACE7B0E01C92EAE7F0E0108210927B00EF
:1000F0008C938C9180648C938081836880838081D1
:1001000080648083808186FDFDCF2091780080917E
:10011000790090E0982F8827820F911D0895E0ECD8
:10012000F0E0908195FFFDCF8093C6000895CF93B6
:10013000DF93EC018881882331F021960E948F00A3
:1001400089918111FBCFDF91CF9108958093C400F5
:100150009093C5008EE08093C200E1ECF0E08081D6
:10016000886180832FEB87E299E0215080409040A6
:10017000E1F700C0000080E091E00E9497008AE073
:100180000E948F0081E191E00E9497008AE00E9426
:100190008F000895E0ECF0E080818823ECF78091F7
:1001A000C600089594B1976094B981FB552750F922
:1001B00082FB442740F935B125B12695217095B1D0
:1001C00092FB992790F981703170831721F035B136
:1001D00081E0832785B9521721F025B182E082277B
:1001E00085B9491721F095B184E0892785B908952B
:1001F000239A95B188E0982795B92FE936E891E0E0
:10020000215030409040E1F700C0000095B18927AF
:1002100085B92FE936E881E0215030408040E1F790
:1002200000C00000089580E090E00E94A6000E94B7
:10023000F80095B188E0892785B90895CF930E9489
:100240007000C82F892F0E948F008C2F0E948F0072
:10025000CF9108950E9413010E94CA0090E0FC0112
:10026000F097E532F10508F050C0EC5CFF4F0C94BC
:1002700089018BE291E00E9497000E94F80045C03E
:100280006AE271E080E00E941E013FC080E00E94AF
:10029000D200CFEFDFE06AE271E080E00E941E0151
:1002A0002197C9F732C081E00E94D200CFEFDFE092
:1002B0006AE271E080E00E941E012197C9F725C023
:1002C00082E00E94D200CFEFDFE06AE271E080E0DE
:1002D0000E941E012197C9F718C083E00E94D20036
:1002E0006AE271E080E00E941E010FC084E00E947B
:1002F000D2000BC085E00E94D20007C086E00E94B9
:10030000D20003C087E00E94D2008AE00E948F00E2
:10031000A3CFEE0FFF1F0590F491E02D0994F89400
:02032000FFCF0D
:100322005541525420496E697469616C697A6564F9
:1003320000436F7079726967687420536168696CF1
:10034200204B616C65203230323000426C696E6B3A
:08035200696E67204C45440070
:00000001FF
