:100000000C9459000C946E000C946E000C946E00CD
:100010000C946E000C946E000C946E000C946E00A8
:100020000C946E000C946E000C946E000C946E0098
:100030000C946E000C946E000C946E000C946E0088
:100040000C946E000C946E000C946E000C946E0078
:100050000C946E000C946E000C946E000C946E0068
:100060000C946E000C946E00AB01AF01B301B701AC
:10007000BB01BF01C301C701CA01CA01CA01CA014C
:10008000CA01CA01CA01CA01CA01CA019E01CA0144
:10009000CA01CA01CA01CA01CA01CA01CA01CA0108
:1000A000CA01CA01CA01CA01CA01CA01CA01CA01F8
:1000B000A50111241FBECFEFD8E0DEBFCDBF11E0F8
:1000C000A0E0B1E0E6E1F4E002C005900D92A832B4
:1000D000B107D9F70E9490010C9409020C9400001A
:1000E000ACE7B0E01C92EAE7F0E0108210927B00EF
:1000F0008C938C9180648C938081836880838081D1
:1001000080648083808186FDFDCF2091780080917E
:10011000790090E0982F8827820F911D0895E0ECD8
:10012000F0E0908195FFFDCF8093C6000895CF93B6
:10013000DF93EC018881882331F021960E948F00A3
:1001400089918111FBCFDF91CF910895CF93DF93F8
:10015000CDB7DEB761970FB6F894DEBF0FBECDBF47
:100160008093C4009093C5008EE08093C200E1ECC0
:10017000F0E08081886180832FE382E49FE021505A
:1001800080409040E1F700C0000081E1E0E0F1E054
:10019000DE01119601900D928A95E1F7CE0101964C
:1001A0000E9497008AE00E948F0061960FB6F89433
:1001B000DEBF0FBECDBFDF91CF910895E0ECF0E040
:1001C00080818823ECF78091C60008950F931F93D8
:1001D000CF93DF93C82F84B18E6084B901E08C2F58
:1001E0008470C2FF00E0882329F081E191E00E9441
:1001F000970004C083E191E00E94970011E08C2FEA
:100200008270C1FF10E0882329F081E191E00E9413
:10021000970004C083E191E00E949700D1E08C2F09
:100220008170C0FFD0E0882329F081E191E00E9435
:10023000970004C083E191E00E94970085B1202FD0
:1002400030E0827090E02817390721F095B182E004
:10025000892785B985B1212F30E0847090E0281777
:10026000390721F095B184E0892785B985B12D2F13
:1002700030E0887090E02817390721F095B188E0C8
:10028000892785B9DF91CF911F910F910895209A09
:1002900095B181E0982795B92FE936E891E0215092
:1002A00030409040E1F700C0000095B1892785B942
:1002B0002FE936E881E0215030408040E1F700C06E
:1002C000000008958CE090E00E94A6000E94470183
:1002D00008950F931F93CF93DF93CDB7DEB72B977E
:1002E0000FB6F894DEBF0FBECDBF8B010E94700029
:1002F00042E0BE016F5F7F4F0E94D401CE010196A4
:100300000E949700C8010E9497002B960FB6F894A0
:10031000DEBF0FBECDBFDF91CF911F910F9108952A
:100320000E9462010E94DE0090E0FC01F097E5323D
:10033000F10580F5EC5CFF4F0C94CE0185E191E076
:100340000E9497000E94470125C062E271E085E0AB
:100350000E9469011FC080E00E94E6001BC081E08E
:100360000E94E60017C082E00E94E60013C083E00E
:100370000E94E6000FC084E00E94E6000BC085E00A
:100380000E94E60007C086E00E94E60003C087E006
:100390000E94E6008AE00E948F00C4CFEE0FFF1F8C
:1003A0000590F491E02D0994BB274A3031F499234C
:1003B00022F4BDE2909581959F4F0C94E001BB27FC
:1003C000FB015527AA27880F991FAA1FA41710F011
:1003D000A41B83955051B9F7A05DAA3308F0A95D1D
:1003E000A193009779F7B111B1931192CB010C94BD
:1003F000F901DC01FC01672F71917723E1F7329756
:1004000004C07C916D9370836291AE17BF07C8F3EF
:060410000895F894FFCFEF
:100416005541525420496E697469616C697A656404
:100426000031003000426C696E6B696E67204C4586
:08043600440054656D704300A1
:00000001FF
