S01F00004D61696E436F64654D656454656368456D6265646465642E7372656361
S11300000C9434000C9449000C9449000C9449005D
S11300100C9449000C9449000C9449000C94490038
S11300200C9449000C9449000C9449000C94490028
S11300300C9449000C9449000C9449000C94490018
S11300400C9449000C9449000C9449000C94490008
S11300500C9449000C9449000C9449000C944900F8
S11300600C9449000C94490011241FBECFEFD8E032
S1130070DEBFCDBF11E0A0E0B1E0E0EAF2E002C0F3
S113008005900D92AC33B107D9F70E94F8000C9497
S11300904E010C940000ACE7B0E01C92EAE7F0E0FB
S11300A0108210927B008C938C9180648C9380815D
S11300B083688083808180648083808186FDFDCF16
S11300C0209178008091790090E0982F8827820F02
S11300D0911D0895E0ECF0E0908195FFFDCF8093B1
S11300E0C6000895CF93DF93EC018881882331F013
S11300F021960E946A0089918111FBCFDF91CF91F3
S113010008958093C4009093C5008EE08093C2004C
S1130110E1ECF0E08081886180832FEB87E299E055
S1130120215080409040E1F700C0000080E091E061
S11301300E9472008AE00E946A0081E191E00E94BC
S113014072008AE00E946A000895E0ECF0E0808189
S11301508823ECF78091C600089594B1976094B910
S113016081FB332730F925B195B196959170817053
S11301702170821721F025B181E0822785B93917D2
S113018021F095B182E0892785B90895229A95B125
S113019084E0982795B92FE936E891E02150304062
S11301A09040E1F700C0000095B1892785B92FE997
S11301B036E881E0215030408040E1F700C0000083
S11301C0089580E090E00E9481000E94C60095B1ED
S11301D084E0892785B90895CF930E944B00C82FE6
S11301E0892F0E946A008C2F0E946A00CF91089583
S11301F00E94E1000E94A500823359F128F4803363
S113020091F08133C9F046C0823431F08435D9F19C
S1130210833309F03FC02AC08BE291E00E94720050
S11302200E94C60037C080E00E94AD006AE371E01E
S113023080E00E94EC002EC081E00E94AD00CFEF70
S1130240DFE06AE371E080E00E94EC002197C9F7E7
S113025021C082E00E94AD00CFEFDFE06AE371E0ED
S113026080E00E94EC002197C9F714C083E00E944B
S1130270AD00CFEFDFE06AE371E080E00E94EC00C4
S11302802197C9F707C080E00E94AD0088E391E0A0
S11302900E9472008AE00E946A00ACCFF894FFCFFB
S11302A05541525420496E697469616C697A656478
S11302B000436F7079726967687420536168696C70
S11302C0204B616C65203230323000426C696E6BB9
S10F02D0696E67204C454400313000008A
S9030000FC
