:100000000C9434000C9449000C9449000C94490061
:100010000C9449000C9449000C9449000C9449003C
:100020000C9449000C9449000C9449000C9449002C
:100030000C9449000C9449000C9449000C9449001C
:100040000C9449000C9449000C9449000C9449000C
:100050000C9449000C9449000C9449000C944900FC
:100060000C9449000C94490011241FBECFEFD8E036
:10007000DEBFCDBF11E0A0E0B1E0E4E2F2E002C0FB
:1000800005900D92A630B107D9F70E94B4000C94E8
:1000900010010C940000ACE7B0E01C92EAE7F0E03D
:1000A000108210927B008C938C9180648C93808161
:1000B00083688083808180648083808186FDFDCF1A
:1000C000809179002091780090E0982F8827820F06
:1000D000911D0895E0ECF0E0908195FFFDCF8093B5
:1000E000C6000895CF93DF93EC018881882331F017
:1000F00021960E946A0089918111FBCFDF91CF91F7
:1001000008958093C4009093C50086E08093C20058
:10011000E1ECF0E0808188618083089595B181E011
:10012000982795B92FE936E891E02150304090406A
:10013000E1F700C0000095B1892785B92FE936E8BD
:1001400081E0215030408040E1F700C00000089578
:1001500085E090E00E9481008CEF84B984B18360D7
:1001600084B90E948E000895CF93DF93CDB7DEB798
:1001700061970FB6F894DEBF0FBECDBF0E94A800F6
:1001800085E00E944B0026E0E0E0F1E0DE011C96F5
:1001900001900D922A95E1F742E0BE016F5F7F4F1B
:1001A0000E94DB00CE0101960E947200CE010C96E7
:1001B0000E947200E5CFBB274A3031F4992322F424
:1001C000BDE2909581959F4F0C94E700BB27FB0102
:1001D0005527AA27880F991FAA1FA41710F0A41B40
:1001E00083955051B9F7A05DAA3308F0A95DA1939A
:1001F000009779F7B111B1931192CB010C940001E2
:10020000DC01FC01672F71917723E1F7329704C07D
:100210007C916D9370836291AE17BF07C8F3089508
:04022000F894FFCF80
:0602240054454D5043005B
:00000001FF
