:100000000C9459000C946E000C946E000C946E00CD
:100010000C946E000C946E000C946E000C946E00A8
:100020000C946E000C946E000C946E000C946E0098
:100030000C946E000C946E000C946E000C946E0088
:100040000C946E000C946E000C946E000C946E0078
:100050000C946E000C946E000C946E000C946E0068
:100060000C946E000C946E00B901BD01C101C50174
:10007000C901CD01D101D501D801D801D801D801DC
:10008000D801D801D801D801D801D801AC01D801D4
:10009000D801D801D801D801D801D801D801D80198
:1000A000D801D801D801D801D801D801D801D80188
:1000B000B30111241FBECFEFD8E0DEBFCDBF11E0EA
:1000C000A0E0B1E0E2E3F4E002C005900D92A433B9
:1000D000B107D9F70E949E010C9417020C940000FE
:1000E000ACE7B0E01C92EAE7F0E0108210927B00EF
:1000F0008C938C9180648C938081836880838081D1
:1001000080648083808186FDFDCF2091780080917E
:10011000790090E0982F8827820F911D0895E0ECD8
:10012000F0E0908195FFFDCF8093C6000895CF93B6
:10013000DF93EC018881882331F021960E948F00A3
:1001400089918111FBCFDF91CF910895CF93DF93F8
:10015000CDB7DEB761970FB6F894DEBF0FBECDBF47
:100160008093C4009093C5008EE08093C200E1ECC0
:10017000F0E08081886180832FE382E49FE021505A
:1001800080409040E1F700C0000081E1E0E0F1E054
:10019000DE01119601900D928A95E1F7CE0101964C
:1001A0000E9497008AE00E948F0061960FB6F89433
:1001B000DEBF0FBECDBFDF91CF910895E0ECF0E040
:1001C00080818823ECF78091C6000895CF92DF925A
:1001D000EF92FF920F931F93CF93DF93C82F84303A
:1001E00020F481E191E00E94970084B18E6084B98F
:1001F000EE24E3948C2F8470C2FFE12CFF24F3944F
:100200009C2F9270C92EC1FFF12C01E09C2F9170A0
:10021000D92EC0FF00E015B116951170D5B1D2FBF3
:10022000DD27D0F9C5B1C3FBCC27C0F9882329F05D
:100230008DE191E00E94970004C08FE191E00E945F
:100240009700CC2029F08DE191E00E94970004C036
:100250008FE191E00E949700DD2029F08DE191E08F
:100260000E94970004C08FE191E00E9497008AE00D
:100270000E948F00E11621F095B182E0892785B9AF
:10028000FD1621F095B184E0892785B90C1721F07E
:1002900095B188E0892785B9DF91CF911F910F91A2
:1002A000FF90EF90DF90CF900895209A95B181E074
:1002B000982795B92FE936E891E0215030409040D9
:1002C000E1F700C0000095B1892785B92FE936E82C
:1002D00081E0215030408040E1F700C000000895E7
:1002E0008CE090E00E94A6000E94550108950F93B3
:1002F0001F93CF93DF93CDB7DEB72B970FB6F8944C
:10030000DEBF0FBECDBF8B010E94700042E0BE0178
:100310006F5F7F4F0E94E201CE0101960E9497001D
:10032000C8010E9497002B960FB6F894DEBF0FBE4F
:10033000CDBFDF91CF911F910F9108950E94700161
:100340000E94DE0090E0FC01F097E532F10580F5B7
:10035000EC5CFF4F0C94DC0181E291E00E9497007D
:100360000E94550125C06EE271E085E00E94770190
:100370001FC080E00E94E6001BC081E00E94E600F2
:1003800017C082E00E94E60013C083E00E94E600EE
:100390000FC084E00E94E6000BC085E00E94E600EA
:1003A00007C086E00E94E60003C087E00E94E600E6
:1003B0008AE00E948F00C4CFEE0FFF1F0590F491DA
:1003C000E02D0994BB274A3031F4992322F4BDE291
:1003D000909581959F4F0C94EE01BB27FB0155270B
:1003E000AA27880F991FAA1FA41710F0A41B839592
:1003F0005051B9F7A05DAA3308F0A95DA193009709
:1004000079F7B111B1931192CB010C940702DC0181
:10041000FC01672F71917723E1F7329704C07C913B
:100420006D9370836291AE17BF07C8F30895F89477
:02043000FFCFFC
:100432005541525420496E697469616C697A6564E8
:10044200004C657373207468616E20340031003093
:1004520000426C696E6B696E67204C4544005465BE
:040462006D70430076
:00000001FF
