S01F00004D61696E436F64654D656454656368456D6265646465642E7372656361
S11300000C9434000C9449000C9449000C9449005D
S11300100C9449000C9449000C9449000C94490038
S11300200C9449000C9449000C9449000C94490028
S11300300C9449000C9449000C9449000C94490018
S11300400C9449000C9449000C9449000C94490008
S11300500C9449000C9449000C9449000C944900F8
S11300600C9449000C94490011241FBECFEFD8E032
S1130070DEBFCDBF11E0A0E0B1E0E4E3F3E002C0F5
S113008005900D92AE31B107D9F70E9435010C9459
S113009098010C940000982F84B18E6084B991FB70
S11300A0442740F9292F217085B192FB662760F916
S11300B070E0827090E06817790721F095B182E0D2
S11300C0892785B985B150E0847090E048175907B5
S11300D021F095B184E0892785B985B130E0887035
S11300E090E02817390721F095B188E0892785B970
S11300F00895ACE7B0E01C92EAE7F0E010821092B9
S11301007B008C938C9180648C9380818368808342
S1130110808180648083808186FDFDCF209178007A
S11301208091790090E0982F8827820F911D08957F
S1130130E0ECF0E0908195FFFDCF8093C600089538
S1130140CF93DF93EC018881882331F021960E94BC
S1130150980089918111FBCFDF91CF910895E0EC54
S1130160F0E080818823ECF78091C6000895CF9356
S1130170DF93CDB7DEB761970FB6F894DEBF0FBE3D
S1130180CDBF8093C4009093C5008EE08093C200DD
S1130190E1ECF0E08081886180832FE382E49FE0DA
S11301A0215080409040E1F700C0000081E1E0E090
S11301B0F1E0DE01119601900D928A95E1F7CE01EE
S11301C001960E94A00061960FB6F894DEBF0FBEA0
S11301D0CDBFDF91CF910895209A95B181E0982702
S11301E095B92FE936E891E0215030409040E1F78D
S11301F000C0000095B1892785B92FE936E881E070
S1130200215030408040E1F700C0000008958CE0A8
S113021090E00E94B7000E94EC0008950F931F9392
S1130220CF93DF93CDB7DEB72B970FB6F894DEBF2D
S11302300FBECDBF8B010E94790042E0BE016F5F0B
S11302407F4F0E946301CE0101960E94A000C80165
S11302500E94A0002B960FB6F894DEBF0FBECDBF50
S1130260DF91CF911F910F9108950E9407010E9481
S1130270AF008233E1F028F4803389F0813399F0C0
S11302801AC0823419F0843521F015C00E94EC00A4
S113029016C061E171E085E00E940E0110C080E0AB
S11302A00E944B000CC081E00E944B0008C082E019
S11302B00E944B0004C087E191E00E94A0008AE004
S11302C00E949800D4CFBB274A3031F4992322F4FA
S11302D0BDE2909581959F4F0C946F01BB27FB0164
S11302E05527AA27880F991FAA1FA41710F0A41B2B
S11302F083955051B9F7A05DAA3308F0A95DA19385
S1130300009779F7B111B1931192CB010C94880144
S1130310DC01FC01672F71917723E1F7329704C068
S11303207C916D9370836291AE17BF07C8F30895F3
S1070330F894FFCF6B
S11303345541525420496E697469616C697A6564E3
S11103440054656D704300446F6E6B65790064
S9030000FC
