:100000000C9434000C9449000C9449000C94490061
:100010000C9449000C9449000C9449000C9449003C
:100020000C9449000C9449000C9449000C9449002C
:100030000C9449000C9449000C9449000C9449001C
:100040000C9449000C9449000C9449000C9449000C
:100050000C9449000C9449000C9449000C944900FC
:100060000C9449000C94490011241FBECFEFD8E036
:10007000DEBFCDBF11E0A0E0B1E0E6E6F2E002C0F5
:1000800005900D92A630B107D9F70E94E0000C94BC
:1000900031010C940000ACE7B0E01C92EAE7F0E01C
:1000A000108210927B008C938C9180648C93808161
:1000B00083688083808180648083808186FDFDCF1A
:1000C000209178008091790090E0982F8827820F06
:1000D000911D0895E0ECF0E0908195FFFDCF8093B5
:1000E000C6000895CF93DF93EC018881882331F017
:1000F00021960E946A0089918111FBCFDF91CF91F7
:1001000008958093C4009093C5008EE08093C20050
:10011000E1ECF0E08081886180832FE382E49FE05E
:10012000215080409040E1F700C00000089595B153
:1001300081E0982795B92FE936E891E021503040C9
:100140009040E1F700C0000095B1892785B92FE9FB
:1001500036E881E0215030408040E1F700C00000E7
:10016000089589E190E00E948100209A0E94970002
:1001700008950F931F93CF93DF93CDB7DEB72B97DF
:100180000FB6F894DEBF0FBECDBF8B010E944B00AF
:1001900042E0BE016F5F7F4F0E94FC00CE010196DE
:1001A0000E947200C8010E9472002B960FB6F8944C
:1001B000DEBF0FBECDBFDF91CF911F910F9108958C
:1001C000CF93DF9300D000D000D0CDB7DEB70E9430
:1001D000B10086E0E0E0F1E0DE01119601900D92C1
:1001E0008A95E1F7BE016F5F7F4F85E00E94B900FD
:1001F0008AE00E946A00EDCFBB274A3031F4992390
:1002000022F4BDE2909581959F4F0C940801BB2785
:10021000FB015527AA27880F991FAA1FA41710F0C2
:10022000A41B83955051B9F7A05DAA3308F0A95DCE
:10023000A193009779F7B111B1931192CB010C946E
:100240002101DC01FC01672F71917723E1F73297DF
:1002500004C07C916D9370836291AE17BF07C8F3A1
:060260000895F894FFCFA1
:0602660054656D704300B9
:00000001FF
