:100000000C9434000C943E000C943E000C943E0082
:100010000C943E000C943E000C943E000C943E0068
:100020000C943E000C943E000C943E000C943E0058
:100030000C943E000C943E000C943E000C943E0048
:100040000C943E000C943E000C943E000C943E0038
:100050000C943E000C943E000C943E000C943E0028
:100060000C943E000C943E0011241FBECFEFD8E04C
:10007000DEBFCDBF0E944B000C9454000C940000D6
:100080002C9904C095B180E1892785B995B180E1AB
:10009000892785B9089595B188E0892785B980E0D9
:0C00A00090E00E944000FBCFF894FFCFDE
:00000001FF
