S01F00004D6564546563687350726F6A6563744D61696E436F64652E7372656321
S11300000C9434000C943E000C943E000C943E007E
S11300100C943E000C943E000C943E000C943E0064
S11300200C943E000C943E000C943E000C943E0054
S11300300C943E000C943E000C943E000C943E0044
S11300400C943E000C943E000C943E000C943E0034
S11300500C943E000C943E000C943E000C943E0024
S11300600C943E000C943E0011241FBECFEFD8E048
S1130070DEBFCDBF0E9455000C946C000C940000B0
S1130080ECE7F0E010828083808180668083EAE779
S1130090F0E08081836880838081806480838081B4
S11300A086FDFDCF81E090E008958FEF84B99AB189
S11300B08AB910927A0010927B008BB985B908E74F
S11300C010E0C9E7D0E085E00E944000F80180819B
S10F00D085B988818BB9F7CFF894FFCF75
S9030000FC
