:100000000C9434000C943E000C943E000C943E0082
:100010000C943E000C943E000C943E000C943E0068
:100020000C943E000C943E000C943E000C943E0058
:100030000C943E000C943E000C943E000C943E0048
:100040000C943E000C943E000C943E000C943E0038
:100050000C943E000C943E000C943E000C943E0028
:100060000C943E000C943E0011241FBECFEFD8E04C
:10007000DEBFCDBF0E945A000C9462000C940000B9
:1000800095B181E0982795B92FE936E891E02150A4
:1000900030409040E1F700C0000095B1892785B954
:1000A0002FE936E881E0215030408040E1F700C080
:1000B0000000089584B1836084B90E9440000E94CA
:0800C0004000FDCFF894FFCFD2
:00000001FF
